{
  "contractName": "DSLAMock",
  "abi": [
    {
      "constant": false,
      "inputs": [
        {
          "name": "spender",
          "type": "address"
        },
        {
          "name": "value",
          "type": "uint256"
        }
      ],
      "name": "approve",
      "outputs": [
        {
          "name": "",
          "type": "bool"
        }
      ],
      "payable": false,
      "stateMutability": "nonpayable",
      "type": "function"
    },
    {
      "constant": true,
      "inputs": [],
      "name": "totalSupply",
      "outputs": [
        {
          "name": "",
          "type": "uint256"
        }
      ],
      "payable": false,
      "stateMutability": "view",
      "type": "function"
    },
    {
      "constant": false,
      "inputs": [
        {
          "name": "from",
          "type": "address"
        },
        {
          "name": "to",
          "type": "address"
        },
        {
          "name": "value",
          "type": "uint256"
        }
      ],
      "name": "transferFrom",
      "outputs": [
        {
          "name": "",
          "type": "bool"
        }
      ],
      "payable": false,
      "stateMutability": "nonpayable",
      "type": "function"
    },
    {
      "constant": true,
      "inputs": [],
      "name": "INITIAL_SUPPLY",
      "outputs": [
        {
          "name": "",
          "type": "uint256"
        }
      ],
      "payable": false,
      "stateMutability": "view",
      "type": "function"
    },
    {
      "constant": false,
      "inputs": [
        {
          "name": "spender",
          "type": "address"
        },
        {
          "name": "addedValue",
          "type": "uint256"
        }
      ],
      "name": "increaseAllowance",
      "outputs": [
        {
          "name": "",
          "type": "bool"
        }
      ],
      "payable": false,
      "stateMutability": "nonpayable",
      "type": "function"
    },
    {
      "constant": false,
      "inputs": [
        {
          "name": "value",
          "type": "uint256"
        }
      ],
      "name": "burn",
      "outputs": [],
      "payable": false,
      "stateMutability": "nonpayable",
      "type": "function"
    },
    {
      "constant": true,
      "inputs": [
        {
          "name": "owner",
          "type": "address"
        }
      ],
      "name": "balanceOf",
      "outputs": [
        {
          "name": "",
          "type": "uint256"
        }
      ],
      "payable": false,
      "stateMutability": "view",
      "type": "function"
    },
    {
      "constant": false,
      "inputs": [
        {
          "name": "from",
          "type": "address"
        },
        {
          "name": "value",
          "type": "uint256"
        }
      ],
      "name": "burnFrom",
      "outputs": [],
      "payable": false,
      "stateMutability": "nonpayable",
      "type": "function"
    },
    {
      "constant": false,
      "inputs": [
        {
          "name": "spender",
          "type": "address"
        },
        {
          "name": "subtractedValue",
          "type": "uint256"
        }
      ],
      "name": "decreaseAllowance",
      "outputs": [
        {
          "name": "",
          "type": "bool"
        }
      ],
      "payable": false,
      "stateMutability": "nonpayable",
      "type": "function"
    },
    {
      "constant": false,
      "inputs": [
        {
          "name": "to",
          "type": "address"
        },
        {
          "name": "value",
          "type": "uint256"
        }
      ],
      "name": "transfer",
      "outputs": [
        {
          "name": "",
          "type": "bool"
        }
      ],
      "payable": false,
      "stateMutability": "nonpayable",
      "type": "function"
    },
    {
      "constant": true,
      "inputs": [
        {
          "name": "owner",
          "type": "address"
        },
        {
          "name": "spender",
          "type": "address"
        }
      ],
      "name": "allowance",
      "outputs": [
        {
          "name": "",
          "type": "uint256"
        }
      ],
      "payable": false,
      "stateMutability": "view",
      "type": "function"
    },
    {
      "inputs": [],
      "payable": false,
      "stateMutability": "nonpayable",
      "type": "constructor"
    },
    {
      "anonymous": false,
      "inputs": [
        {
          "indexed": true,
          "name": "from",
          "type": "address"
        },
        {
          "indexed": true,
          "name": "to",
          "type": "address"
        },
        {
          "indexed": false,
          "name": "value",
          "type": "uint256"
        }
      ],
      "name": "Transfer",
      "type": "event"
    },
    {
      "anonymous": false,
      "inputs": [
        {
          "indexed": true,
          "name": "owner",
          "type": "address"
        },
        {
          "indexed": true,
          "name": "spender",
          "type": "address"
        },
        {
          "indexed": false,
          "name": "value",
          "type": "uint256"
        }
      ],
      "name": "Approval",
      "type": "event"
    }
  ],
  "bytecode": "0x608060405234801561001057600080fd5b50610030336b204fce5e3e25026110000000640100000000610035810204565b610106565b600160a060020a038216151561004a57600080fd5b60025461006490826401000000006105ef6100ed82021704565b600255600160a060020a03821660009081526020819052604090205461009790826401000000006105ef6100ed82021704565b600160a060020a0383166000818152602081815260408083209490945583518581529351929391927fddf252ad1be2c89b69c2b068fc378daa952ba7f163c4a11628f55a4df523b3ef9281900390910190a35050565b6000828201838110156100ff57600080fd5b9392505050565b610794806101156000396000f3006080604052600436106100ae5763ffffffff7c0100000000000000000000000000000000000000000000000000000000600035041663095ea7b381146100b357806318160ddd146100eb57806323b872dd146101125780632ff2e9dc1461013c578063395093511461015157806342966c681461017557806370a082311461018f57806379cc6790146101b0578063a457c2d7146101d4578063a9059cbb146101f8578063dd62ed3e1461021c575b600080fd5b3480156100bf57600080fd5b506100d7600160a060020a0360043516602435610243565b604080519115158252519081900360200190f35b3480156100f757600080fd5b506101006102c1565b60408051918252519081900360200190f35b34801561011e57600080fd5b506100d7600160a060020a03600435811690602435166044356102c7565b34801561014857600080fd5b50610100610364565b34801561015d57600080fd5b506100d7600160a060020a0360043516602435610374565b34801561018157600080fd5b5061018d600435610424565b005b34801561019b57600080fd5b50610100600160a060020a0360043516610431565b3480156101bc57600080fd5b5061018d600160a060020a036004351660243561044c565b3480156101e057600080fd5b506100d7600160a060020a036004351660243561045a565b34801561020457600080fd5b506100d7600160a060020a03600435166024356104a5565b34801561022857600080fd5b50610100600160a060020a03600435811690602435166104bb565b6000600160a060020a038316151561025a57600080fd5b336000818152600160209081526040808320600160a060020a03881680855290835292819020869055805186815290519293927f8c5be1e5ebec7d5bd14f71427d1e84f3dd0314c0f7b2291e5b200ac8c7c3b925929181900390910190a350600192915050565b60025490565b600160a060020a03831660009081526001602090815260408083203384529091528120548211156102f757600080fd5b600160a060020a038416600090815260016020908152604080832033845290915290205461032b908363ffffffff6104e616565b600160a060020a038516600090815260016020908152604080832033845290915290205561035a8484846104fd565b5060019392505050565b6b204fce5e3e2502611000000081565b6000600160a060020a038316151561038b57600080fd5b336000908152600160209081526040808320600160a060020a03871684529091529020546103bf908363ffffffff6105ef16565b336000818152600160209081526040808320600160a060020a0389168085529083529281902085905580519485525191937f8c5be1e5ebec7d5bd14f71427d1e84f3dd0314c0f7b2291e5b200ac8c7c3b925929081900390910190a350600192915050565b61042e3382610608565b50565b600160a060020a031660009081526020819052604090205490565b61045682826106d6565b5050565b6000600160a060020a038316151561047157600080fd5b336000908152600160209081526040808320600160a060020a03871684529091529020546103bf908363ffffffff6104e616565b60006104b23384846104fd565b50600192915050565b600160a060020a03918216600090815260016020908152604080832093909416825291909152205490565b600080838311156104f657600080fd5b5050900390565b600160a060020a03831660009081526020819052604090205481111561052257600080fd5b600160a060020a038216151561053757600080fd5b600160a060020a038316600090815260208190526040902054610560908263ffffffff6104e616565b600160a060020a038085166000908152602081905260408082209390935590841681522054610595908263ffffffff6105ef16565b600160a060020a038084166000818152602081815260409182902094909455805185815290519193928716927fddf252ad1be2c89b69c2b068fc378daa952ba7f163c4a11628f55a4df523b3ef92918290030190a3505050565b60008282018381101561060157600080fd5b9392505050565b600160a060020a038216151561061d57600080fd5b600160a060020a03821660009081526020819052604090205481111561064257600080fd5b600254610655908263ffffffff6104e616565b600255600160a060020a038216600090815260208190526040902054610681908263ffffffff6104e616565b600160a060020a038316600081815260208181526040808320949094558351858152935191937fddf252ad1be2c89b69c2b068fc378daa952ba7f163c4a11628f55a4df523b3ef929081900390910190a35050565b600160a060020a038216600090815260016020908152604080832033845290915290205481111561070657600080fd5b600160a060020a038216600090815260016020908152604080832033845290915290205461073a908263ffffffff6104e616565b600160a060020a038316600090815260016020908152604080832033845290915290205561045682826106085600a165627a7a72305820c8f2cf18564fbfbbcfd3bce730b21356b8c30245bdbf120a908944f4880222730029",
  "source": "pragma solidity 0.4.24;\n\nimport \"openzeppelin-solidity/contracts/token/ERC20/ERC20Burnable.sol\";\n\ncontract DSLAMock is ERC20Burnable {\n    uint256 public constant INITIAL_SUPPLY = 10000000000000000000000000000;\n\n    /**\n      * @dev Constructor\n      */\n    constructor() public {\n        _mint(msg.sender, INITIAL_SUPPLY);\n    }\n}\n",
  "sourcePath": "/home/silversurfer/Development/stacktical-tokensale-contracts/contracts/Mocks/DSLAMock.sol",
  "compiler": {
    "name": "solc",
    "version": "0.4.24+commit.e67f0147.Emscripten.clang"
  },
  "schemaVersion": "2.0.1",
  "updatedAt": "2018-11-10T13:09:07.383Z"
}