{
  "contractName": "PullPayment",
  "abi": [
    {
      "inputs": [],
      "payable": false,
      "stateMutability": "nonpayable",
      "type": "constructor"
    },
    {
      "constant": true,
      "inputs": [
        {
          "name": "_dest",
          "type": "address"
        }
      ],
      "name": "payments",
      "outputs": [
        {
          "name": "",
          "type": "uint256"
        }
      ],
      "payable": false,
      "stateMutability": "view",
      "type": "function"
    }
  ],
  "bytecode": "0x608060405234801561001057600080fd5b5061001961005b565b604051809103906000f080158015610035573d6000803e3d6000fd5b5060008054600160a060020a031916600160a060020a039290921691909117905561006b565b604051610579806101d283390190565b6101588061007a6000396000f3006080604052600436106100405763ffffffff7c0100000000000000000000000000000000000000000000000000000000600035041663e2982c218114610045575b600080fd5b34801561005157600080fd5b5061007373ffffffffffffffffffffffffffffffffffffffff60043516610085565b60408051918252519081900360200190f35b60008054604080517fe3a9db1a00000000000000000000000000000000000000000000000000000000815273ffffffffffffffffffffffffffffffffffffffff85811660048301529151919092169163e3a9db1a91602480830192602092919082900301818787803b1580156100fa57600080fd5b505af115801561010e573d6000803e3d6000fd5b505050506040513d602081101561012457600080fd5b5051929150505600a165627a7a7230582087ac95165f87563d73e8f25eefda45e4e71b4030203a65c7cb5dc4c26e40535200296080604081905260008054600160a060020a0319163317808255600160a060020a0316917f8be0079c531659141344cd1fd0a4f28419497f9722a3daafe3b4186f6b6457e0908290a3610522806100576000396000f30060806040526004361061008d5763ffffffff7c010000000000000000000000000000000000000000000000000000000060003504166351cff8d981146100925780635b7e3405146100c5578063715018a6146100e85780638da5cb5b146100fd5780638f32d59b1461012e578063e3a9db1a14610157578063f2fde38b14610178578063f340fa0114610199575b600080fd5b34801561009e57600080fd5b506100b3600160a060020a03600435166101ad565b60408051918252519081900360200190f35b3480156100d157600080fd5b506100e6600160a060020a0360043516610272565b005b3480156100f457600080fd5b506100e6610305565b34801561010957600080fd5b5061011261036f565b60408051600160a060020a039092168252519081900360200190f35b34801561013a57600080fd5b5061014361037e565b604080519115158252519081900360200190f35b34801561016357600080fd5b506100b3600160a060020a036004351661038f565b34801561018457600080fd5b506100e6600160a060020a03600435166103aa565b6100e6600160a060020a03600435166103c9565b6000806101b861037e565b15156101c357600080fd5b50600160a060020a03821660009081526001602052604090205430318111156101e857fe5b600160a060020a0383166000818152600160205260408082208290555183156108fc0291849190818181858888f1935050505015801561022c573d6000803e3d6000fd5b50604080518281529051600160a060020a038516917f7084f5476618d8e60b11ef0d7d3f06914655adb8793e28ff7f018d4c76d505d5919081900360200190a292915050565b600061027c61037e565b151561028757600080fd5b50604051303190600160a060020a0383169082156108fc029083906000818181858888f193505050501580156102c1573d6000803e3d6000fd5b50604080518281529051600160a060020a038416917f7084f5476618d8e60b11ef0d7d3f06914655adb8793e28ff7f018d4c76d505d5919081900360200190a25050565b61030d61037e565b151561031857600080fd5b60008054604051600160a060020a03909116907f8be0079c531659141344cd1fd0a4f28419497f9722a3daafe3b4186f6b6457e0908390a36000805473ffffffffffffffffffffffffffffffffffffffff19169055565b600054600160a060020a031690565b600054600160a060020a0316331490565b600160a060020a031660009081526001602052604090205490565b6103b261037e565b15156103bd57600080fd5b6103c681610460565b50565b60006103d361037e565b15156103de57600080fd5b50600160a060020a038116600090815260016020526040902054349061040a908263ffffffff6104dd16565b600160a060020a038316600081815260016020908152604091829020939093558051848152905191927f2da466a7b24304f47e87fa2e1e5a81b9831ce54fec19055ce277ca2f39ba42c492918290030190a25050565b600160a060020a038116151561047557600080fd5b60008054604051600160a060020a03808516939216917f8be0079c531659141344cd1fd0a4f28419497f9722a3daafe3b4186f6b6457e091a36000805473ffffffffffffffffffffffffffffffffffffffff1916600160a060020a0392909216919091179055565b6000828201838110156104ef57600080fd5b93925050505600a165627a7a7230582073447b5e5b9d45d6eda24dac267c99e9972ec32b7802157b8097ebbf057366670029",
  "source": "pragma solidity 0.4.24;\n\nimport \"./Escrow.sol\";\n\n/**\n  * @title PullPayment (based on openzeppelin version with one function to withdraw funds to the wallet)\n  * @dev Base contract supporting async send for pull payments. Inherit from this\n  * contract and use asyncTransfer instead of send or transfer.\n  */\ncontract PullPayment {\n    Escrow private escrow;\n\n    constructor() public {\n        escrow = new Escrow();\n    }\n\n    /**\n      * @dev Returns the credit owed to an address.\n      * @param _dest The creditor's address.\n      * @return Deposited amount by the address given as argument.\n      */\n    function payments(address _dest) public view returns(uint256) {\n        return escrow.depositsOf(_dest);\n    }\n\n    /**\n      * @dev Withdraw accumulated balance, called by payee.\n      * @param _payee The address whose funds will be withdrawn and transferred to.\n      * @return Amount withdrawn\n      */\n    function _withdrawPayments(address _payee) internal returns(uint256) {\n        uint256 payment = escrow.withdraw(_payee);\n\n        return payment;\n    }\n\n    /**\n      * @dev Called by the payer to store the sent amount as credit to be pulled.\n      * @param _dest The destination address of the funds.\n      * @param _amount The amount to transfer.\n      */\n    function _asyncTransfer(address _dest, uint256 _amount) internal {\n        escrow.deposit.value(_amount)(_dest);\n    }\n\n    /**\n      * @dev Withdraws the wallet's funds.\n      * @param _wallet address the funds will be transferred to.\n      */\n    function _withdrawFunds(address _wallet) internal {\n        escrow.beneficiaryWithdraw(_wallet);\n    }\n}\n",
  "sourcePath": "/home/silversurfer/Development/stacktical-tokensale-contracts/contracts/Crowdsale/PullPayment.sol",
  "compiler": {
    "name": "solc",
    "version": "0.4.24+commit.e67f0147.Emscripten.clang"
  },
  "schemaVersion": "2.0.1",
  "updatedAt": "2018-11-10T13:09:07.381Z"
}