{
  "contractName": "VestedCrowdsale",
  "abi": [
    {
      "constant": true,
      "inputs": [],
      "name": "vestedTokens",
      "outputs": [
        {
          "name": "",
          "type": "uint256"
        }
      ],
      "payable": false,
      "stateMutability": "view",
      "type": "function"
    },
    {
      "constant": true,
      "inputs": [
        {
          "name": "",
          "type": "address"
        }
      ],
      "name": "contributions",
      "outputs": [
        {
          "name": "",
          "type": "uint256"
        }
      ],
      "payable": false,
      "stateMutability": "view",
      "type": "function"
    },
    {
      "constant": true,
      "inputs": [
        {
          "name": "",
          "type": "address"
        }
      ],
      "name": "withdrawn",
      "outputs": [
        {
          "name": "",
          "type": "uint256"
        }
      ],
      "payable": false,
      "stateMutability": "view",
      "type": "function"
    },
    {
      "constant": true,
      "inputs": [
        {
          "name": "",
          "type": "address"
        }
      ],
      "name": "contributionsRound",
      "outputs": [
        {
          "name": "",
          "type": "uint256"
        }
      ],
      "payable": false,
      "stateMutability": "view",
      "type": "function"
    },
    {
      "constant": true,
      "inputs": [
        {
          "name": "_beneficiary",
          "type": "address"
        }
      ],
      "name": "getWithdrawableAmount",
      "outputs": [
        {
          "name": "",
          "type": "uint256"
        }
      ],
      "payable": false,
      "stateMutability": "view",
      "type": "function"
    }
  ],
  "bytecode": "0x608060405234801561001057600080fd5b50610543806100206000396000f30060806040526004361061006c5763ffffffff7c01000000000000000000000000000000000000000000000000000000006000350416630dfee936811461007157806342e94c90146100985780636ef61092146100b957806375ceada4146100da578063f6777175146100fb575b600080fd5b34801561007d57600080fd5b5061008661011c565b60408051918252519081900360200190f35b3480156100a457600080fd5b50610086600160a060020a0360043516610122565b3480156100c557600080fd5b50610086600160a060020a0360043516610134565b3480156100e657600080fd5b50610086600160a060020a0360043516610146565b34801561010757600080fd5b50610086600160a060020a0360043516610158565b60035481565b60016020526000908152604090205481565b60006020819052908152604090205481565b60026020526000908152604090205481565b600080600080610167856101bf565b60ff16925061017585610322565b600160a060020a0386166000908152602081905260409020549092506101b1906101a5858563ffffffff6104a416565b9063ffffffff6104dd16565b90508093505b505050919050565b600160a060020a038116600090815260016020526040812054819081908190819081908190819015156101f157600080fd5b600160a060020a03891660009081526002602052604081205411801561022f5750600160a060020a0389166000908152600260205260409020546004115b151561023a57600080fd5b505050600160a060020a038616600090815260026020526040902054635ca073809450635cc800809350635cf0df009250635d186c009150635d414a8090635d91b6009060018114156102c357864210156102985760009750610316565b834210156102a95760019750610316565b814210156102ba5760029750610316565b60039750610316565b80600214156102f757854210156102dd5760009750610316565b824210156102ee5760019750610316565b60029750610316565b806003141561031657844210156103115760009750610316565b600197505b50505050505050919050565b600160a060020a038116600090815260016020526040812054819081908190151561034c57600080fd5b600160a060020a03851660009081526002602052604081205411801561038a5750600160a060020a0385166000908152600260205260409020546004115b151561039557600080fd5b600160a060020a038516600090815260026020526040902054925060018314156104185750600160a060020a03841660009081526001602052604090205462065bbc9061040e90606490610402906019906103f6908663ffffffff6104a416565b9063ffffffff6104a416565b9063ffffffff6104f416565b91508193506101b7565b826002141561045e5750600160a060020a0384166000908152600160205260409020546204c4b49061040e90606490610402906019906103f6908663ffffffff6104a416565b50600160a060020a0384166000908152600160205260409020546203d0909061049b90606490610402906019906103f6908663ffffffff6104a416565b95945050505050565b6000808315156104b757600091506104d6565b508282028284828115156104c757fe5b04146104d257600080fd5b8091505b5092915050565b600080838311156104ed57600080fd5b5050900390565b60008080831161050357600080fd5b828481151561050e57fe5b049493505050505600a165627a7a723058206a5397b6728a71294d8879e865dcca9bd4b03cae4371c779d936b7f1d88d7c230029",
  "source": "pragma solidity 0.4.24;\n\nimport \"openzeppelin-solidity/contracts/math/SafeMath.sol\";\n\n\n/** @title VestedCrowdsale\n  * @dev Extension of Crowdsale to allow a vested distribution of tokens\n  * Users have to individually claim their tokens\n  */\ncontract VestedCrowdsale {\n    using SafeMath for uint256;\n\n    mapping (address => uint256) public withdrawn;\n    mapping (address => uint256) public contributions;\n    mapping (address => uint256) public contributionsRound;\n    uint256 public vestedTokens;\n\n    /**\n      * @dev Gives how much a user is allowed to withdraw at the current moment\n      * @param _beneficiary The address of the user asking how much he's allowed\n      * to withdraw\n      * @return Amount _beneficiary is allowed to withdraw\n      */\n    function getWithdrawableAmount(address _beneficiary) public view returns(uint256) {\n        uint256 step = _getVestingStep(_beneficiary);\n        uint256 valueByStep = _getValueByStep(_beneficiary);\n        uint256 result = step.mul(valueByStep).sub(withdrawn[_beneficiary]);\n\n        return result;\n    }\n\n    /**\n      * @dev Gives the step of the vesting (starts from 0 to steps)\n      * @param _beneficiary The address of the user asking how much he's allowed\n      * to withdraw\n      * @return The vesting step for _beneficiary\n      */\n    function _getVestingStep(address _beneficiary) internal view returns(uint8) {\n        require(contributions[_beneficiary] != 0);\n        require(contributionsRound[_beneficiary] > 0 && contributionsRound[_beneficiary] < 4);\n\n        uint256 march31 = 1554019200;\n        uint256 april30 = 1556611200;\n        uint256 may31 = 1559289600;\n        uint256 june30 = 1561881600;\n        uint256 july31 = 1564560000;\n        uint256 sept30 = 1569830400;\n        uint256 contributionRound = contributionsRound[_beneficiary];\n\n        // vesting for private sale contributors\n        if (contributionRound == 1) {\n            if (block.timestamp < march31) {\n                return 0;\n            }\n            if (block.timestamp < june30) {\n                return 1;\n            }\n            if (block.timestamp < sept30) {\n                return 2;\n            }\n\n            return 3;\n        }\n        // vesting for pre ico contributors\n        if (contributionRound == 2) {\n            if (block.timestamp < april30) {\n                return 0;\n            }\n            if (block.timestamp < july31) {\n                return 1;\n            }\n\n            return 2;\n        }\n        // vesting for ico contributors\n        if (contributionRound == 3) {\n            if (block.timestamp < may31) {\n                return 0;\n            }\n\n            return 1;\n        }\n    }\n\n    /**\n      * @dev Gives the amount a user is allowed to withdraw by step\n      * @param _beneficiary The address of the user asking how much he's allowed\n      * to withdraw\n      * @return How much a user is allowed to withdraw by step\n      */\n    function _getValueByStep(address _beneficiary) internal view returns(uint256) {\n        require(contributions[_beneficiary] != 0);\n        require(contributionsRound[_beneficiary] > 0 && contributionsRound[_beneficiary] < 4);\n\n        uint256 contributionRound = contributionsRound[_beneficiary];\n        uint256 amount;\n        uint256 rate;\n\n        if (contributionRound == 1) {\n            rate = 416700;\n            amount = contributions[_beneficiary].mul(rate).mul(25).div(100);\n            return amount;\n        } else if (contributionRound == 2) {\n            rate = 312500;\n            amount = contributions[_beneficiary].mul(rate).mul(25).div(100);\n            return amount;\n        }\n\n        rate = 250000;\n        amount = contributions[_beneficiary].mul(rate).mul(25).div(100);\n        return amount;\n    }\n}\n",
  "sourcePath": "/home/silversurfer/Development/stacktical-tokensale-contracts/contracts/Crowdsale/VestedCrowdsale.sol",
  "compiler": {
    "name": "solc",
    "version": "0.4.24+commit.e67f0147.Emscripten.clang"
  },
  "schemaVersion": "2.0.1",
  "updatedAt": "2018-11-10T13:09:07.381Z"
}