{
  "contractName": "Whitelist",
  "abi": [
    {
      "constant": false,
      "inputs": [],
      "name": "renounceOwnership",
      "outputs": [],
      "payable": false,
      "stateMutability": "nonpayable",
      "type": "function"
    },
    {
      "constant": true,
      "inputs": [],
      "name": "owner",
      "outputs": [
        {
          "name": "",
          "type": "address"
        }
      ],
      "payable": false,
      "stateMutability": "view",
      "type": "function"
    },
    {
      "constant": true,
      "inputs": [],
      "name": "isOwner",
      "outputs": [
        {
          "name": "",
          "type": "bool"
        }
      ],
      "payable": false,
      "stateMutability": "view",
      "type": "function"
    },
    {
      "constant": true,
      "inputs": [
        {
          "name": "",
          "type": "address"
        }
      ],
      "name": "whitelist",
      "outputs": [
        {
          "name": "",
          "type": "bool"
        }
      ],
      "payable": false,
      "stateMutability": "view",
      "type": "function"
    },
    {
      "constant": false,
      "inputs": [
        {
          "name": "newOwner",
          "type": "address"
        }
      ],
      "name": "transferOwnership",
      "outputs": [],
      "payable": false,
      "stateMutability": "nonpayable",
      "type": "function"
    },
    {
      "anonymous": false,
      "inputs": [
        {
          "indexed": true,
          "name": "_beneficiary",
          "type": "address"
        }
      ],
      "name": "AddedBeneficiary",
      "type": "event"
    },
    {
      "anonymous": false,
      "inputs": [
        {
          "indexed": true,
          "name": "_beneficiary",
          "type": "address"
        }
      ],
      "name": "RemovedBeneficiary",
      "type": "event"
    },
    {
      "anonymous": false,
      "inputs": [
        {
          "indexed": true,
          "name": "previousOwner",
          "type": "address"
        },
        {
          "indexed": true,
          "name": "newOwner",
          "type": "address"
        }
      ],
      "name": "OwnershipTransferred",
      "type": "event"
    },
    {
      "constant": false,
      "inputs": [
        {
          "name": "_beneficiaries",
          "type": "address[]"
        }
      ],
      "name": "addAddressToWhitelist",
      "outputs": [],
      "payable": false,
      "stateMutability": "nonpayable",
      "type": "function"
    },
    {
      "constant": false,
      "inputs": [
        {
          "name": "_beneficiary",
          "type": "address"
        }
      ],
      "name": "addToWhitelist",
      "outputs": [],
      "payable": false,
      "stateMutability": "nonpayable",
      "type": "function"
    },
    {
      "constant": false,
      "inputs": [
        {
          "name": "_beneficiary",
          "type": "address"
        }
      ],
      "name": "removeFromWhitelist",
      "outputs": [],
      "payable": false,
      "stateMutability": "nonpayable",
      "type": "function"
    }
  ],
  "bytecode": "0x6080604081905260008054600160a060020a0319163317808255600160a060020a0316917f8be0079c531659141344cd1fd0a4f28419497f9722a3daafe3b4186f6b6457e0908290a36104c1806100576000396000f30060806040526004361061008d5763ffffffff7c0100000000000000000000000000000000000000000000000000000000600035041663715018a681146100925780638ab1d681146100a95780638da5cb5b146100ca5780638f32d59b146100fb5780639b19251a14610124578063d3bcbb3c14610145578063e43252d71461019a578063f2fde38b146101bb575b600080fd5b34801561009e57600080fd5b506100a76101dc565b005b3480156100b557600080fd5b506100a7600160a060020a0360043516610246565b3480156100d657600080fd5b506100df6102a2565b60408051600160a060020a039092168252519081900360200190f35b34801561010757600080fd5b506101106102b1565b604080519115158252519081900360200190f35b34801561013057600080fd5b50610110600160a060020a03600435166102c2565b34801561015157600080fd5b50604080516020600480358082013583810280860185019096528085526100a7953695939460249493850192918291850190849080828437509497506102d79650505050505050565b3480156101a657600080fd5b506100a7600160a060020a0360043516610397565b3480156101c757600080fd5b506100a7600160a060020a03600435166103f9565b6101e46102b1565b15156101ef57600080fd5b60008054604051600160a060020a03909116907f8be0079c531659141344cd1fd0a4f28419497f9722a3daafe3b4186f6b6457e0908390a36000805473ffffffffffffffffffffffffffffffffffffffff19169055565b61024e6102b1565b151561025957600080fd5b600160a060020a038116600081815260016020526040808220805460ff19169055517f91ffc01aeb0780ceeb564f01b8d508d274c196b6b2c013fce6087f29e6970e089190a250565b600054600160a060020a031690565b600054600160a060020a0316331490565b60016020526000908152604090205460ff1681565b60006102e16102b1565b15156102ec57600080fd5b5060005b8151811015610393576001806000848481518110151561030c57fe5b602090810291909101810151600160a060020a03168252810191909152604001600020805460ff1916911515919091179055815182908290811061034c57fe5b90602001906020020151600160a060020a03167f2e3361a4e7a8b067d0bbafcb5811e35ba5eccbb7a274be8bcfe4fb6f81fe30c860405160405180910390a26001016102f0565b5050565b61039f6102b1565b15156103aa57600080fd5b600160a060020a0381166000818152600160208190526040808320805460ff1916909217909155517f2e3361a4e7a8b067d0bbafcb5811e35ba5eccbb7a274be8bcfe4fb6f81fe30c89190a250565b6104016102b1565b151561040c57600080fd5b61041581610418565b50565b600160a060020a038116151561042d57600080fd5b60008054604051600160a060020a03808516939216917f8be0079c531659141344cd1fd0a4f28419497f9722a3daafe3b4186f6b6457e091a36000805473ffffffffffffffffffffffffffffffffffffffff1916600160a060020a03929092169190911790555600a165627a7a72305820ac9df2eda7d57c7fb1bdbf878c1e474fc7c1e3faffaa9c45de76a1e6faca2cad0029",
  "source": "pragma solidity 0.4.24;\n\nimport \"openzeppelin-solidity/contracts/ownership/Ownable.sol\";\n\n/**\n  * @title Whitelist\n  * @dev The Whitelist contract has a whitelist of addresses, and provides basic authorization control functions.\n  * This simplifies the implementation of \"user permissions\".\n  */\ncontract Whitelist is Ownable {\n    // Whitelisted address\n    mapping(address => bool) public whitelist;\n\n    event AddedBeneficiary(address indexed _beneficiary);\n    event RemovedBeneficiary(address indexed _beneficiary);\n\n    /**\n      * @dev Adds list of addresses to whitelist. Not overloaded due to limitations with truffle testing.\n      * @param _beneficiaries Addresses to be added to the whitelist\n      */\n    function addAddressToWhitelist(address[] _beneficiaries) public onlyOwner {\n        for (uint256 i = 0; i < _beneficiaries.length; i++) {\n            whitelist[_beneficiaries[i]] = true;\n\n            emit AddedBeneficiary(_beneficiaries[i]);\n        }\n    }\n\n    /**\n      * @dev Adds list of address to whitelist. Not overloaded due to limitations with truffle testing.\n      * @param _beneficiary Address to be added to the whitelist\n      */\n    function addToWhitelist(address _beneficiary) public onlyOwner {\n        whitelist[_beneficiary] = true;\n\n        emit AddedBeneficiary(_beneficiary);\n    }\n\n    /**\n      * @dev Removes single address from whitelist.\n      * @param _beneficiary Address to be removed to the whitelist\n      */\n    function removeFromWhitelist(address _beneficiary) public onlyOwner {\n        whitelist[_beneficiary] = false;\n\n        emit RemovedBeneficiary(_beneficiary);\n    }\n}\n",
  "sourcePath": "/home/silversurfer/Development/stacktical-tokensale-contracts/contracts/Crowdsale/Whitelist.sol",
  "compiler": {
    "name": "solc",
    "version": "0.4.24+commit.e67f0147.Emscripten.clang"
  },
  "schemaVersion": "2.0.1",
  "updatedAt": "2018-11-10T13:09:07.383Z"
}